{
  "contractName": "SolnSquareVerifier",
  "abi": [
    {
      "constant": true,
      "inputs": [
        {
          "name": "interfaceId",
          "type": "bytes4"
        }
      ],
      "name": "supportsInterface",
      "outputs": [
        {
          "name": "",
          "type": "bool"
        }
      ],
      "payable": false,
      "stateMutability": "view",
      "type": "function"
    },
    {
      "constant": true,
      "inputs": [],
      "name": "name",
      "outputs": [
        {
          "name": "",
          "type": "string"
        }
      ],
      "payable": false,
      "stateMutability": "view",
      "type": "function"
    },
    {
      "constant": true,
      "inputs": [
        {
          "name": "tokenId",
          "type": "uint256"
        }
      ],
      "name": "getApproved",
      "outputs": [
        {
          "name": "",
          "type": "address"
        }
      ],
      "payable": false,
      "stateMutability": "view",
      "type": "function"
    },
    {
      "constant": false,
      "inputs": [
        {
          "name": "to",
          "type": "address"
        },
        {
          "name": "tokenId",
          "type": "uint256"
        }
      ],
      "name": "approve",
      "outputs": [],
      "payable": false,
      "stateMutability": "nonpayable",
      "type": "function"
    },
    {
      "constant": false,
      "inputs": [
        {
          "name": "newValue",
          "type": "bool"
        }
      ],
      "name": "setPaused",
      "outputs": [],
      "payable": false,
      "stateMutability": "nonpayable",
      "type": "function"
    },
    {
      "constant": true,
      "inputs": [],
      "name": "totalSupply",
      "outputs": [
        {
          "name": "",
          "type": "uint256"
        }
      ],
      "payable": false,
      "stateMutability": "view",
      "type": "function"
    },
    {
      "constant": false,
      "inputs": [
        {
          "name": "from",
          "type": "address"
        },
        {
          "name": "to",
          "type": "address"
        },
        {
          "name": "tokenId",
          "type": "uint256"
        }
      ],
      "name": "transferFrom",
      "outputs": [],
      "payable": false,
      "stateMutability": "nonpayable",
      "type": "function"
    },
    {
      "constant": true,
      "inputs": [
        {
          "name": "_myid",
          "type": "bytes32"
        },
        {
          "name": "_result",
          "type": "string"
        }
      ],
      "name": "__callback",
      "outputs": [],
      "payable": false,
      "stateMutability": "pure",
      "type": "function"
    },
    {
      "constant": true,
      "inputs": [
        {
          "name": "owner",
          "type": "address"
        },
        {
          "name": "index",
          "type": "uint256"
        }
      ],
      "name": "tokenOfOwnerByIndex",
      "outputs": [
        {
          "name": "",
          "type": "uint256"
        }
      ],
      "payable": false,
      "stateMutability": "view",
      "type": "function"
    },
    {
      "constant": true,
      "inputs": [
        {
          "name": "_myid",
          "type": "bytes32"
        },
        {
          "name": "_result",
          "type": "string"
        },
        {
          "name": "_proof",
          "type": "bytes"
        }
      ],
      "name": "__callback",
      "outputs": [],
      "payable": false,
      "stateMutability": "pure",
      "type": "function"
    },
    {
      "constant": false,
      "inputs": [
        {
          "name": "to",
          "type": "address"
        },
        {
          "name": "tokenId",
          "type": "uint256"
        }
      ],
      "name": "mint",
      "outputs": [
        {
          "name": "",
          "type": "bool"
        }
      ],
      "payable": false,
      "stateMutability": "nonpayable",
      "type": "function"
    },
    {
      "constant": false,
      "inputs": [
        {
          "name": "from",
          "type": "address"
        },
        {
          "name": "to",
          "type": "address"
        },
        {
          "name": "tokenId",
          "type": "uint256"
        }
      ],
      "name": "safeTransferFrom",
      "outputs": [],
      "payable": false,
      "stateMutability": "nonpayable",
      "type": "function"
    },
    {
      "constant": true,
      "inputs": [
        {
          "name": "index",
          "type": "uint256"
        }
      ],
      "name": "tokenByIndex",
      "outputs": [
        {
          "name": "",
          "type": "uint256"
        }
      ],
      "payable": false,
      "stateMutability": "view",
      "type": "function"
    },
    {
      "constant": true,
      "inputs": [
        {
          "name": "tokenId",
          "type": "uint256"
        }
      ],
      "name": "ownerOf",
      "outputs": [
        {
          "name": "",
          "type": "address"
        }
      ],
      "payable": false,
      "stateMutability": "view",
      "type": "function"
    },
    {
      "constant": true,
      "inputs": [
        {
          "name": "owner",
          "type": "address"
        }
      ],
      "name": "balanceOf",
      "outputs": [
        {
          "name": "",
          "type": "uint256"
        }
      ],
      "payable": false,
      "stateMutability": "view",
      "type": "function"
    },
    {
      "constant": false,
      "inputs": [],
      "name": "renounceOwnership",
      "outputs": [],
      "payable": false,
      "stateMutability": "nonpayable",
      "type": "function"
    },
    {
      "constant": true,
      "inputs": [],
      "name": "getOwner",
      "outputs": [
        {
          "name": "",
          "type": "address"
        }
      ],
      "payable": false,
      "stateMutability": "view",
      "type": "function"
    },
    {
      "constant": true,
      "inputs": [],
      "name": "isOwner",
      "outputs": [
        {
          "name": "",
          "type": "bool"
        }
      ],
      "payable": false,
      "stateMutability": "view",
      "type": "function"
    },
    {
      "constant": true,
      "inputs": [],
      "name": "symbol",
      "outputs": [
        {
          "name": "",
          "type": "string"
        }
      ],
      "payable": false,
      "stateMutability": "view",
      "type": "function"
    },
    {
      "constant": false,
      "inputs": [
        {
          "name": "to",
          "type": "address"
        },
        {
          "name": "approved",
          "type": "bool"
        }
      ],
      "name": "setApprovalForAll",
      "outputs": [],
      "payable": false,
      "stateMutability": "nonpayable",
      "type": "function"
    },
    {
      "constant": false,
      "inputs": [
        {
          "name": "from",
          "type": "address"
        },
        {
          "name": "to",
          "type": "address"
        },
        {
          "name": "tokenId",
          "type": "uint256"
        },
        {
          "name": "_data",
          "type": "bytes"
        }
      ],
      "name": "safeTransferFrom",
      "outputs": [],
      "payable": false,
      "stateMutability": "nonpayable",
      "type": "function"
    },
    {
      "constant": true,
      "inputs": [
        {
          "name": "tokenId",
          "type": "uint256"
        }
      ],
      "name": "tokenURI",
      "outputs": [
        {
          "name": "",
          "type": "string"
        }
      ],
      "payable": false,
      "stateMutability": "view",
      "type": "function"
    },
    {
      "constant": true,
      "inputs": [],
      "name": "baseTokenURI",
      "outputs": [
        {
          "name": "",
          "type": "string"
        }
      ],
      "payable": false,
      "stateMutability": "view",
      "type": "function"
    },
    {
      "constant": true,
      "inputs": [
        {
          "name": "owner",
          "type": "address"
        },
        {
          "name": "operator",
          "type": "address"
        }
      ],
      "name": "isApprovedForAll",
      "outputs": [
        {
          "name": "",
          "type": "bool"
        }
      ],
      "payable": false,
      "stateMutability": "view",
      "type": "function"
    },
    {
      "constant": false,
      "inputs": [
        {
          "name": "newOwner",
          "type": "address"
        }
      ],
      "name": "transferOwnership",
      "outputs": [],
      "payable": false,
      "stateMutability": "nonpayable",
      "type": "function"
    },
    {
      "inputs": [
        {
          "name": "verifierAddress",
          "type": "address"
        },
        {
          "name": "name",
          "type": "string"
        },
        {
          "name": "symbol",
          "type": "string"
        }
      ],
      "payable": false,
      "stateMutability": "nonpayable",
      "type": "constructor"
    },
    {
      "anonymous": false,
      "inputs": [
        {
          "indexed": false,
          "name": "solutionIndex",
          "type": "uint256"
        },
        {
          "indexed": false,
          "name": "solutionAddress",
          "type": "address"
        }
      ],
      "name": "SolutionAdded",
      "type": "event"
    },
    {
      "anonymous": false,
      "inputs": [
        {
          "indexed": false,
          "name": "tokenId",
          "type": "uint256"
        },
        {
          "indexed": false,
          "name": "to",
          "type": "address"
        }
      ],
      "name": "TokenMint",
      "type": "event"
    },
    {
      "anonymous": false,
      "inputs": [
        {
          "indexed": true,
          "name": "from",
          "type": "address"
        },
        {
          "indexed": true,
          "name": "to",
          "type": "address"
        },
        {
          "indexed": true,
          "name": "tokenId",
          "type": "uint256"
        }
      ],
      "name": "Transfer",
      "type": "event"
    },
    {
      "anonymous": false,
      "inputs": [
        {
          "indexed": true,
          "name": "owner",
          "type": "address"
        },
        {
          "indexed": true,
          "name": "approved",
          "type": "address"
        },
        {
          "indexed": true,
          "name": "tokenId",
          "type": "uint256"
        }
      ],
      "name": "Approval",
      "type": "event"
    },
    {
      "anonymous": false,
      "inputs": [
        {
          "indexed": true,
          "name": "owner",
          "type": "address"
        },
        {
          "indexed": true,
          "name": "operator",
          "type": "address"
        },
        {
          "indexed": false,
          "name": "approved",
          "type": "bool"
        }
      ],
      "name": "ApprovalForAll",
      "type": "event"
    },
    {
      "anonymous": false,
      "inputs": [
        {
          "indexed": true,
          "name": "triggedEventAddress",
          "type": "address"
        },
        {
          "indexed": false,
          "name": "newValue",
          "type": "bool"
        }
      ],
      "name": "PausedAndUnpaused",
      "type": "event"
    },
    {
      "anonymous": false,
      "inputs": [
        {
          "indexed": true,
          "name": "oldOwner",
          "type": "address"
        },
        {
          "indexed": true,
          "name": "newOwner",
          "type": "address"
        }
      ],
      "name": "TransferOwnership",
      "type": "event"
    },
    {
      "constant": false,
      "inputs": [
        {
          "name": "to",
          "type": "address"
        },
        {
          "name": "a",
          "type": "uint256[2]"
        },
        {
          "name": "a_p",
          "type": "uint256[2]"
        },
        {
          "name": "b",
          "type": "uint256[2][2]"
        },
        {
          "name": "b_p",
          "type": "uint256[2]"
        },
        {
          "name": "c",
          "type": "uint256[2]"
        },
        {
          "name": "c_p",
          "type": "uint256[2]"
        },
        {
          "name": "h",
          "type": "uint256[2]"
        },
        {
          "name": "k",
          "type": "uint256[2]"
        },
        {
          "name": "input",
          "type": "uint256[2]"
        }
      ],
      "name": "addSolution",
      "outputs": [],
      "payable": false,
      "stateMutability": "nonpayable",
      "type": "function"
    },
    {
      "constant": false,
      "inputs": [
        {
          "name": "to",
          "type": "address"
        },
        {
          "name": "tokenId",
          "type": "uint256"
        },
        {
          "name": "a",
          "type": "uint256[2]"
        },
        {
          "name": "a_p",
          "type": "uint256[2]"
        },
        {
          "name": "b",
          "type": "uint256[2][2]"
        },
        {
          "name": "b_p",
          "type": "uint256[2]"
        },
        {
          "name": "c",
          "type": "uint256[2]"
        },
        {
          "name": "c_p",
          "type": "uint256[2]"
        },
        {
          "name": "h",
          "type": "uint256[2]"
        },
        {
          "name": "k",
          "type": "uint256[2]"
        },
        {
          "name": "input",
          "type": "uint256[2]"
        }
      ],
      "name": "mintNFT",
      "outputs": [],
      "payable": false,
      "stateMutability": "nonpayable",
      "type": "function"
    }
  ],
  "bytecode": "0x60e0604052603f60808181529062002a2f60a03980516200002991601391602090910190620003f7565b503480156200003757600080fd5b5060405162002a6e38038062002a6e833981810160405260608110156200005d57600080fd5b8151602083018051919392830192916401000000008111156200007f57600080fd5b820160208101848111156200009357600080fd5b8151640100000000811182820187101715620000ae57600080fd5b50509291906020018051640100000000811115620000cb57600080fd5b82016020810184811115620000df57600080fd5b8151640100000000811182820187101715620000fa57600080fd5b505060138054604080516020601f600260001961010060018816150201909516949094049384018190048102820181019092528281529396508795508694508593859390929091830182828015620001965780601f106200016a5761010080835404028352916020019162000196565b820191906000526020600020905b8154815290600101906020018083116200017857829003601f168201915b5050600080546001600160a01b03191633178082556040516001600160a01b039190911694509092507f5c486528ec3e3f0ea91181cff8116f02bfa350e03b8b6f12e00765adbb5af85c91508290a36000805460ff60a01b191690819055604080517401000000000000000000000000000000000000000090920460ff16151582525133917fc39e7237bfff8744cf3c13bd4123d4542cd1803eebff9b19bb09ea990a48d93e919081900360200190a26200027a7f01ffc9a7000000000000000000000000000000000000000000000000000000006001600160e01b036200038716565b620002ae7f80ac58cd000000000000000000000000000000000000000000000000000000006001600160e01b036200038716565b620002e27f780e9d63000000000000000000000000000000000000000000000000000000006001600160e01b036200038716565b8251620002f790600f906020860190620003f7565b5081516200030d906010906020850190620003f7565b50805162000323906011906020840190620003f7565b50620003587f5b5e139f000000000000000000000000000000000000000000000000000000006001600160e01b036200038716565b5050601480546001600160a01b0319166001600160a01b039790971696909617909555506200049c9350505050565b7fffffffff000000000000000000000000000000000000000000000000000000008082161415620003b757600080fd5b7fffffffff00000000000000000000000000000000000000000000000000000000166000908152600160208190526040909120805460ff19169091179055565b828054600181600116156101000203166002900490600052602060002090601f016020900481019282601f106200043a57805160ff19168380011785556200046a565b828001600101855582156200046a579182015b828111156200046a5782518255916020019190600101906200044d565b50620004789291506200047c565b5090565b6200049991905b8082111562000478576000815560010162000483565b90565b61258380620004ac6000396000f3fe608060405234801561001057600080fd5b50600436106101a95760003560e01c80634f6ccce7116100f9578063a22cb46511610097578063c87b56dd11610071578063c87b56dd14610ac9578063d547cfb714610ae6578063e985e9c514610aee578063f2fde38b14610b1c576101a9565b8063a22cb46514610800578063b88d4fde1461082e578063c1a542b5146108f2576101a9565b8063715018a6116100d3578063715018a6146107e0578063893d20e8146107e85780638f32d59b146107f057806395d89b41146107f8576101a9565b80634f6ccce7146107805780636352211e1461079d57806370a08231146107ba576101a9565b806323b872dd1161016657806336d47d951161014057806336d47d951461041357806338bbfa50146105ee57806340c10f191461071e57806342842e0e1461074a576101a9565b806323b872dd1461030657806327dc297e1461033c5780632f745c59146103e7576101a9565b806301ffc9a7146101ae57806306fdde03146101e9578063081812fc14610266578063095ea7b31461029f57806316c38b3c146102cd57806318160ddd146102ec575b600080fd5b6101d5600480360360208110156101c457600080fd5b50356001600160e01b031916610b42565b604080519115158252519081900360200190f35b6101f1610b65565b6040805160208082528351818301528351919283929083019185019080838360005b8381101561022b578181015183820152602001610213565b50505050905090810190601f1680156102585780820380516001836020036101000a031916815260200191505b509250505060405180910390f35b6102836004803603602081101561027c57600080fd5b5035610bfc565b604080516001600160a01b039092168252519081900360200190f35b6102cb600480360360408110156102b557600080fd5b506001600160a01b038135169060200135610c17565b005b6102cb600480360360208110156102e357600080fd5b50351515610d2c565b6102f4610ddd565b60408051918252519081900360200190f35b6102cb6004803603606081101561031c57600080fd5b506001600160a01b03813581169160208101359091169060400135610de3565b6102cb6004803603604081101561035257600080fd5b81359190810190604081016020820135600160201b81111561037357600080fd5b82018360208201111561038557600080fd5b803590602001918460018302840111600160201b831117156103a657600080fd5b91908080601f016020809104026020016040519081016040528093929190818152602001838380828437600092019190915250929550610e06945050505050565b6102f4600480360360408110156103fd57600080fd5b506001600160a01b038135169060200135610e26565b6102cb60048036036102c081101561042a57600080fd5b6040805180820182526001600160a01b038435169360208101359381019290916080830191808401906002908390839080828437600092019190915250506040805180820182529295949381810193925090600290839083908082843760009201829052506040805180820190915293969594608081019493509150600290835b828210156104e957604080518082018252908084028601906002908390839080828437600092019190915250505081526001909101906020016104ab565b5050604080518082018252939695948181019493509150600290839083908082843760009201919091525050604080518082018252929594938181019392509060029083908390808284376000920191909152505060408051808201825292959493818101939250906002908390839080828437600092019190915250506040805180820182529295949381810193925090600290839083908082843760009201919091525050604080518082018252929594938181019392509060029083908390808284376000920191909152505060408051808201825292959493818101939250906002908390839080828437600092019190915250919450610e739350505050565b6102cb6004803603606081101561060457600080fd5b81359190810190604081016020820135600160201b81111561062557600080fd5b82018360208201111561063757600080fd5b803590602001918460018302840111600160201b8311171561065857600080fd5b91908080601f0160208091040260200160405190810160405280939291908181526020018383808284376000920191909152509295949360208101935035915050600160201b8111156106aa57600080fd5b8201836020820111156106bc57600080fd5b803590602001918460018302840111600160201b831117156106dd57600080fd5b91908080601f016020809104026020016040519081016040528093929190818152602001838380828437600092019190915250929550610e01945050505050565b6101d56004803603604081101561073457600080fd5b506001600160a01b038135169060200135610ee0565b6102cb6004803603606081101561076057600080fd5b506001600160a01b03813581169160208101359091169060400135610f51565b6102f46004803603602081101561079657600080fd5b5035610f6c565b610283600480360360208110156107b357600080fd5b5035610fa0565b6102f4600480360360208110156107d057600080fd5b50356001600160a01b0316610fbb565b6102cb610fe2565b61028361107f565b6101d561108e565b6101f161109f565b6102cb6004803603604081101561081657600080fd5b506001600160a01b0381351690602001351515611100565b6102cb6004803603608081101561084457600080fd5b6001600160a01b03823581169260208101359091169160408201359190810190608081016060820135600160201b81111561087e57600080fd5b82018360208201111561089057600080fd5b803590602001918460018302840111600160201b831117156108b157600080fd5b91908080601f016020809104026020016040519081016040528093929190818152602001838380828437600092019190915250929550611184945050505050565b6102cb60048036036102a081101561090957600080fd5b6040805180820182526001600160a01b0384351693928301929160608301919060208401906002908390839080828437600092019190915250506040805180820182529295949381810193925090600290839083908082843760009201829052506040805180820190915293969594608081019493509150600290835b828210156109c45760408051808201825290808402860190600290839083908082843760009201919091525050508152600190910190602001610986565b50506040805180820182529396959481810194935091506002908390839080828437600092019190915250506040805180820182529295949381810193925090600290839083908082843760009201919091525050604080518082018252929594938181019392509060029083908390808284376000920191909152505060408051808201825292959493818101939250906002908390839080828437600092019190915250506040805180820182529295949381810193925090600290839083908082843760009201919091525050604080518082018252929594938181019392509060029083908390808284376000920191909152509194506111aa9350505050565b6101f160048036036020811015610adf57600080fd5b50356115a1565b6101f1611654565b6101d560048036036040811015610b0457600080fd5b506001600160a01b03813581169160200135166116b5565b6102cb60048036036020811015610b3257600080fd5b50356001600160a01b03166116e3565b6001600160e01b0319811660009081526001602052604090205460ff165b919050565b600f8054604080516020601f6002600019610100600188161502019095169490940493840181900481028201810190925282815260609390929091830182828015610bf15780601f10610bc657610100808354040283529160200191610bf1565b820191906000526020600020905b815481529060010190602001808311610bd457829003601f168201915b505050505090505b90565b6000908152600360205260409020546001600160a01b031690565b6000818152600260205260409020546001600160a01b0383811691161415610c705760405162461bcd60e51b815260040180806020018281038252602281526020018061252d6022913960400191505060405180910390fd5b6000818152600260205260409020546001600160a01b03163314610cc55760405162461bcd60e51b81526004018080602001828103825260298152602001806125046029913960400191505060405180910390fd5b600081815260036020908152604080832080546001600160a01b0319166001600160a01b038781169182179092556002909352818420549151859492909116917f8c5be1e5ebec7d5bd14f71427d1e84f3dd0314c0f7b2291e5b200ac8c7c3b92591a45050565b60005460ff600160a01b9091041615158115151415610d7c5760405162461bcd60e51b81526004018080602001828103825260218152602001806124e36021913960400191505060405180910390fd5b60008054821515600160a01b90810260ff60a01b199092169190911791829055604080519190920460ff1615158152905133917fc39e7237bfff8744cf3c13bd4123d4542cd1803eebff9b19bb09ea990a48d93e919081900360200190a250565b60085490565b610ded3382611742565b610df657600080fd5b610e018383836117a1565b505050565b604080516000815260208101909152610e229083908390610e01565b5050565b6000610e3183610fbb565b8210610e3c57600080fd5b6001600160a01b0383166000908152600660205260409020805483908110610e6057fe5b9060005260206000200154905092915050565b610e858b8a8a8a8a8a8a8a8a8a6111aa565b610e8f8b8b610ee0565b50604080518b81526001600160a01b038d16602082015281517fcae919fa60d0c9867c5b3e0a9529934bca78c09d353736e3327f74837594adc5929181900390910190a15050505050505050505050565b6000610eea61108e565b610f35576040805162461bcd60e51b815260206004820152601760248201527621b0b63632b91034b9903737ba103a34329037bbb732b960491b604482015290519081900360640190fd5b610f3f83836117c0565b610f48826117dd565b50600192915050565b610e0183838360405180602001604052806000815250611184565b6000610f76610ddd565b8210610f8157600080fd5b60088281548110610f8e57fe5b90600052602060002001549050919050565b6000908152600260205260409020546001600160a01b031690565b6001600160a01b0381166000908152600460205260408120610fdc906118b2565b92915050565b610fea61108e565b611035576040805162461bcd60e51b815260206004820152601760248201527621b0b63632b91034b9903737ba103a34329037bbb732b960491b604482015290519081900360640190fd5b600080546040516001600160a01b03909116907f5c486528ec3e3f0ea91181cff8116f02bfa350e03b8b6f12e00765adbb5af85c908390a3600080546001600160a01b0319169055565b6000546001600160a01b031690565b6000546001600160a01b0316331490565b60108054604080516020601f6002600019610100600188161502019095169490940493840181900481028201810190925282815260609390929091830182828015610bf15780601f10610bc657610100808354040283529160200191610bf1565b6001600160a01b03821633141561111657600080fd5b3360008181526005602090815260408083206001600160a01b03871680855290835292819020805460ff1916861515908117909155815190815290519293927f17307eab39ab6107e8899845ad3d59bd9653f200f220920489ca2b5937696c31929181900390910190a35050565b61118f848484610de3565b61119b848484846118b6565b6111a457600080fd5b50505050565b6111bb8989898989898989896119e9565b611205576040805162461bcd60e51b815260206004820152601660248201527514dbdb1d5d1a5bdb88185b1c9958591e48195e1a5cdd60521b604482015290519081900360640190fd5b601460009054906101000a90046001600160a01b03166001600160a01b031663fe01ff628a8a8a8a8a8a8a8a8a6040518a63ffffffff1660e01b8152600401808a600260200280838360005b83811015611269578181015183820152602001611251565b5050505090500189600260200280838360005b8381101561129457818101518382015260200161127c565b505050509050018860026000925b818410156112e25760208402830151604080838360005b838110156112d15781810151838201526020016112b9565b5050505090500192600101926112a2565b9250505087600260200280838360005b8381101561130a5781810151838201526020016112f2565b5050505090500186600260200280838360005b8381101561133557818101518382015260200161131d565b5050505090500185600260200280838360005b83811015611360578181015183820152602001611348565b5050505090500184600260200280838360005b8381101561138b578181015183820152602001611373565b5050505090500183600260200280838360005b838110156113b657818101518382015260200161139e565b5050505090500182600260200280838360005b838110156113e15781810151838201526020016113c9565b505050509050019950505050505050505050602060405180830381600087803b15801561140d57600080fd5b505af1158015611421573d6000803e3d6000fd5b505050506040513d602081101561143757600080fd5b505161147f576040805162461bcd60e51b815260206004820152601260248201527114dbdb1d5d1a5bdb881b9bdd081d985b1a5960721b604482015290519081900360640190fd5b60006114928a8a8a8a8a8a8a8a8a611a34565b6040805180820182528281526001600160a01b03808f16602080840182815260158054600181810183556000928352965160029091027f55f448fdea98c4d29eb340757ef0a66cd03dbb9538908a6a81d96026b71ec47581019190915591517f55f448fdea98c4d29eb340757ef0a66cd03dbb9538908a6a81d96026b71ec47690920180549286166001600160a01b0319938416179055865180880188528881528084018581528983526016855291889020905181559051950180549590941694169390931790915582518481529182015281519293507f078793128cefb19aac38a33f9e5df39f67716907f6d747e8065545699e0b2b8d929081900390910190a15050505050505050505050565b60606115ac82611c1c565b6115b557600080fd5b60008281526012602090815260409182902080548351601f6002600019610100600186161502019093169290920491820184900484028101840190945280845290918301828280156116485780601f1061161d57610100808354040283529160200191611648565b820191906000526020600020905b81548152906001019060200180831161162b57829003601f168201915b50505050509050919050565b60118054604080516020601f6002600019610100600188161502019095169490940493840181900481028201810190925282815260609390929091830182828015610bf15780601f10610bc657610100808354040283529160200191610bf1565b6001600160a01b03918216600090815260056020908152604080832093909416825291909152205460ff1690565b6116eb61108e565b611736576040805162461bcd60e51b815260206004820152601760248201527621b0b63632b91034b9903737ba103a34329037bbb732b960491b604482015290519081900360640190fd5b61173f81611c39565b50565b60008061174e83610fa0565b9050806001600160a01b0316846001600160a01b031614806117895750836001600160a01b031661177e84610bfc565b6001600160a01b0316145b80611799575061179981856116b5565b949350505050565b6117ac838383611ce2565b6117b68382611dc2565b610e018282611eb7565b6117ca8282611ef5565b6117d48282611eb7565b610e2281612010565b6117e681611c1c565b6117ef57600080fd5b60118054604080516020601f6002600019610100600188161502019095169490940493840181900481028201810190925282815261188f939092909183018282801561187c5780601f106118515761010080835404028352916020019161187c565b820191906000526020600020905b81548152906001019060200180831161185f57829003601f168201915b505050505061188a83612054565b612115565b60008281526012602090815260409091208251610e22939192919091019061242a565b5490565b60006118ca846001600160a01b0316612158565b6118d657506001611799565b604051630a85bd0160e11b815233600482018181526001600160a01b03888116602485015260448401879052608060648501908152865160848601528651600095928a169463150b7a029490938c938b938b939260a4019060208501908083838e5b83811015611950578181015183820152602001611938565b50505050905090810190601f16801561197d5780820380516001836020036101000a031916815260200191505b5095505050505050602060405180830381600087803b15801561199f57600080fd5b505af11580156119b3573d6000803e3d6000fd5b505050506040513d60208110156119c957600080fd5b50516001600160e01b031916630a85bd0160e11b14915050949350505050565b600080806119fe8c8c8c8c8c8c8c8c8c611a34565b6000818152601660205260409020600101549091506001600160a01b0316611a2557600191505b509a9950505050505050505050565b6000898989898989898989604051602001808a600260200280838360005b83811015611a6a578181015183820152602001611a52565b5050505090500189600260200280838360005b83811015611a95578181015183820152602001611a7d565b505050509050018860026000925b81841015611ae35760208402830151604080838360005b83811015611ad2578181015183820152602001611aba565b505050509050019260010192611aa3565b9250505087600260200280838360005b83811015611b0b578181015183820152602001611af3565b5050505090500186600260200280838360005b83811015611b36578181015183820152602001611b1e565b5050505090500185600260200280838360005b83811015611b61578181015183820152602001611b49565b5050505090500184600260200280838360005b83811015611b8c578181015183820152602001611b74565b5050505090500183600260200280838360005b83811015611bb7578181015183820152602001611b9f565b5050505090500182600260200280838360005b83811015611be2578181015183820152602001611bca565b5050505090500199505050505050505050506040516020818303038152906040528051906020012060001c90509998505050505050505050565b6000908152600260205260409020546001600160a01b0316151590565b6001600160a01b038116611c87576040805162461bcd60e51b815260206004820152601060248201526f13995dc81859191c995cdcc81b9d5b1b60821b604482015290519081900360640190fd5b600080546040516001600160a01b03808516939216917f5c486528ec3e3f0ea91181cff8116f02bfa350e03b8b6f12e00765adbb5af85c91a3600080546001600160a01b0319166001600160a01b0392909216919091179055565b826001600160a01b0316611cf582610fa0565b6001600160a01b031614611d0857600080fd5b6001600160a01b038216611d1b57600080fd5b611d248161215e565b6001600160a01b0383166000908152600460205260409020611d4590612199565b6001600160a01b0382166000908152600460205260409020611d66906121b0565b60008181526002602052604080822080546001600160a01b0319166001600160a01b0386811691821790925591518493918716917fddf252ad1be2c89b69c2b068fc378daa952ba7f163c4a11628f55a4df523b3ef91a4505050565b6001600160a01b038216600090815260066020526040812054611dec90600163ffffffff6121b916565b600083815260076020526040902054909150808214611e87576001600160a01b0384166000908152600660205260408120805484908110611e2957fe5b906000526020600020015490508060066000876001600160a01b03166001600160a01b031681526020019081526020016000208381548110611e6757fe5b600091825260208083209091019290925591825260079052604090208190555b6001600160a01b0384166000908152600660205260409020805490611eb09060001983016124a8565b5050505050565b6001600160a01b0390911660009081526006602081815260408084208054868652600784529185208290559282526001810183559183529091200155565b6001600160a01b038216611f42576040805162461bcd60e51b815260206004820152600f60248201526e496e76616c6964206164647265737360881b604482015290519081900360640190fd5b611f4b81611c1c565b15611f95576040805162461bcd60e51b8152602060048201526015602482015274151bdad95b925908185b1c9958591e48195e1a5cdd605a1b604482015290519081900360640190fd5b600081815260026020908152604080832080546001600160a01b0319166001600160a01b038716908117909155835260049091529020611fd4906121b0565b60405181906001600160a01b038416906000907fddf252ad1be2c89b69c2b068fc378daa952ba7f163c4a11628f55a4df523b3ef908290a45050565b600880546000838152600960205260408120829055600182018355919091527ff3f7a9fe364faab93b216da50a3214154f22a0a2b415b23a84c8169e8b636ee30155565b60608161207957506040805180820190915260018152600360fc1b6020820152610b60565b8160005b811561209157600101600a8204915061207d565b6060816040519080825280601f01601f1916602001820160405280156120be576020820181803883390190505b50905060001982015b851561210c57600a860660300160f81b828280600190039350815181106120ea57fe5b60200101906001600160f81b031916908160001a905350600a860495506120c7565b50949350505050565b60606121518383604051806020016040528060008152506040518060200160405280600081525060405180602001604052806000815250612216565b9392505050565b3b151590565b6000818152600360205260409020546001600160a01b03161561173f57600090815260036020526040902080546001600160a01b0319169055565b80546121ac90600163ffffffff6121b916565b9055565b80546001019055565b600082821115612210576040805162461bcd60e51b815260206004820152601e60248201527f536166654d6174683a207375627472616374696f6e206f766572666c6f770000604482015290519081900360640190fd5b50900390565b6060808690506060869050606086905060608690506060869050606081518351855187518951010101016040519080825280601f01601f19166020018201604052801561226a576020820181803883390190505b509050806000805b88518110156122c35788818151811061228757fe5b602001015160f81c60f81b8383806001019450815181106122a457fe5b60200101906001600160f81b031916908160001a905350600101612272565b5060005b8751811015612318578781815181106122dc57fe5b602001015160f81c60f81b8383806001019450815181106122f957fe5b60200101906001600160f81b031916908160001a9053506001016122c7565b5060005b865181101561236d5786818151811061233157fe5b602001015160f81c60f81b83838060010194508151811061234e57fe5b60200101906001600160f81b031916908160001a90535060010161231c565b5060005b85518110156123c25785818151811061238657fe5b602001015160f81c60f81b8383806001019450815181106123a357fe5b60200101906001600160f81b031916908160001a905350600101612371565b5060005b8451811015612417578481815181106123db57fe5b602001015160f81c60f81b8383806001019450815181106123f857fe5b60200101906001600160f81b031916908160001a9053506001016123c6565b50909d9c50505050505050505050505050565b828054600181600116156101000203166002900490600052602060002090601f016020900481019282601f1061246b57805160ff1916838001178555612498565b82800160010185558215612498579182015b8281111561249857825182559160200191906001019061247d565b506124a49291506124c8565b5090565b815481835581811115610e0157600083815260209020610e019181019083015b610bf991905b808211156124a457600081556001016124ce56fe4e6577207061757365642076616c756520616c72656164792061737369676e656453656e6465722061646472657373206e6f7420746865206f776e6572206f662074686520746f6b656e5472616e73666572206164647265737320616c726561647920746865206f776e6572a265627a7a72305820e438335fb3b471082ef841023c7e358ee412fb4fc8fccc0280c459d9f049e2a664736f6c6343000509003268747470733a2f2f73332d75732d776573742d322e616d617a6f6e6177732e636f6d2f756461636974792d626c6f636b636861696e2f63617073746f6e652f",
  "source": "pragma solidity ^0.5.0;\n\nimport './ERC721Mintable.sol';\n\n// DONE define another contract named SolnSquareVerifier that inherits from your ERC721Mintable class\ncontract SolnSquareVerifier is MyCustomERC721Token {\n\n    // FlightSuretyData contract\n    VerifierInterface verifierInterface;\n\n    // DONE define a solutions struct that can hold an index & an address\n    struct Solution {\n        uint256 index;\n        address solutionAddress;\n    }\n\n    // DONE define an array of the above struct\n    Solution[] solutions;\n\n    // DONE define a mapping to store unique solutions submitted\n    mapping(uint256 => Solution) private uniqueSubmittedSolutions;\n\n    // DONE Create an event to emit when a solution is added\n    event SolutionAdded(uint256 solutionIndex, address solutionAddress);\n\n    // Event to inform about a token was mint\n    event TokenMint(uint256 tokenId, address to);\n\n    constructor(address verifierAddress, string memory name, string memory symbol) MyCustomERC721Token(name, symbol) public {\n        verifierInterface = VerifierInterface(verifierAddress);\n    }\n\n    // DONE Create a function to add the solutions to the array and emit the event\n    function addSolution\n    ( \n        address to,\n        uint[2] memory a,\n        uint[2] memory a_p,\n        uint[2][2] memory b,\n        uint[2] memory b_p,\n        uint[2] memory c,\n        uint[2] memory c_p,\n        uint[2] memory h,\n        uint[2] memory k,\n        uint[2] memory input\n    ) \n        public \n    {\n        // Check if solution already exist\n        require(isUniqueSolution(a, a_p, b, b_p, c, c_p, h, k, input), 'Solution already exist');\n\n        // Check if solution is valid\n        require(verifierInterface.verifyTx(a, a_p, b, b_p, c, c_p, h, k, input), \"Solution not valid\");\n\n        // Calculate the hash of the solution which will be the index in the mapping\n        uint256 indexHash = calculateHashIndexOfSolution(a, a_p, b, b_p, c, c_p, h, k, input);\n\n        // Add solution to the array\n        solutions.push(Solution({index: indexHash, solutionAddress: to}));\n\n        // add solution to mapping\n        uniqueSubmittedSolutions[indexHash] = Solution({index: indexHash, solutionAddress: to});\n\n        // Emit proper event\n        emit SolutionAdded(indexHash, to);\n    }\n\n    // DONE Create a function to mint new NFT only after the solution has been verified\n    //  - make sure the solution is unique (has not been used before)\n    //  - make sure you handle metadata as well as tokenSuplly\n    function mintNFT\n    (\n        address to,\n        uint256 tokenId,\n        uint[2] memory a,\n        uint[2] memory a_p,\n        uint[2][2] memory b,\n        uint[2] memory b_p,\n        uint[2] memory c,\n        uint[2] memory c_p,\n        uint[2] memory h,\n        uint[2] memory k,\n        uint[2] memory input\n    )\n        public\n    {\n        // Add solution to the array and mapping. In addSolution there are verify solution check and unique solution check\n        addSolution(to, a, a_p, b, b_p, c, c_p, h, k, input);\n\n        // Mint the token. Metadata are managed inside mint function\n        super.mint(to, tokenId);\n\n        // Emit proper event\n        emit TokenMint(tokenId, to);\n    }\n    \n\n    function isUniqueSolution\n    (\n        uint[2] memory a,\n        uint[2] memory a_p,\n        uint[2][2] memory b,\n        uint[2] memory b_p,\n        uint[2] memory c,\n        uint[2] memory c_p,\n        uint[2] memory h,\n        uint[2] memory k,\n        uint[2] memory input\n    )\n        private\n        view\n        returns(bool)\n    {\n        bool isUnique = false;\n        uint256 indexHash = calculateHashIndexOfSolution(a, a_p, b, b_p, c, c_p, h, k, input);\n        if (uniqueSubmittedSolutions[indexHash].solutionAddress == address(0)) {\n            isUnique = true;\n        }\n        return isUnique;\n    }\n\n    function calculateHashIndexOfSolution\n    (\n        uint[2] memory a,\n        uint[2] memory a_p,\n        uint[2][2] memory b,\n        uint[2] memory b_p,\n        uint[2] memory c,\n        uint[2] memory c_p,\n        uint[2] memory h,\n        uint[2] memory k,\n        uint[2] memory input\n    )\n        private\n        pure\n        returns (uint256)\n    {\n        return uint256(keccak256(abi.encodePacked(a, a_p, b, b_p, c, c_p, h, k, input)));\n    }\n}\n\n// DONE define a contract call to the zokrates generated solidity contract <Verifier> or <renamedVerifier>\n// ABI\ncontract VerifierInterface {\n    function verifyTx(\n        uint[2] memory,\n        uint[2] memory,\n        uint[2][2] memory,\n        uint[2] memory,\n        uint[2] memory,\n        uint[2] memory,\n        uint[2] memory,\n        uint[2] memory,\n        uint[2] memory\n    ) public returns (bool);\n}",
  "sourcePath": "E:/Udacity/Blockchain/SecondTerm/CapstoneProject/eth-contracts/contracts/SolnSquareVerifier.sol",
  "compiler": {
    "name": "solc",
    "version": "0.5.9+commit.e560f70d.Emscripten.clang"
  },
  "schemaVersion": "3.0.10",
  "updatedAt": "2019-06-04T16:28:57.041Z",
  "devdoc": {
    "methods": {
      "baseTokenURI()": {
        "details": "Gets the token baseTokenURI",
        "return": "string representing the token baseTokenURI"
      },
      "isApprovedForAll(address,address)": {
        "details": "Tells whether an operator is approved by a given owner",
        "params": {
          "operator": "operator address which you want to query the approval of",
          "owner": "owner address which you want to query the approval of"
        },
        "return": "bool whether the given operator is approved by the given owner"
      },
      "name()": {
        "details": "Gets the token name",
        "return": "string representing the token name"
      },
      "setApprovalForAll(address,bool)": {
        "details": "Sets or unsets the approval of a given operator An operator is allowed to transfer all tokens of the sender on their behalf",
        "params": {
          "approved": "representing the status of the approval to be set",
          "to": "operator address to set the approval"
        }
      },
      "supportsInterface(bytes4)": {
        "details": "implement supportsInterface(bytes4) using a lookup table"
      },
      "symbol()": {
        "details": "Gets the token symbol",
        "return": "string representing the token symbol"
      },
      "tokenByIndex(uint256)": {
        "details": "Gets the token ID at a given index of all the tokens in this contract Reverts if the index is greater or equal to the total number of tokens",
        "params": {
          "index": "uint256 representing the index to be accessed of the tokens list"
        },
        "return": "uint256 token ID at the given index of the tokens list"
      },
      "tokenOfOwnerByIndex(address,uint256)": {
        "details": "Gets the token ID at a given index of the tokens list of the requested owner",
        "params": {
          "index": "uint256 representing the index to be accessed of the requested tokens list",
          "owner": "address owning the tokens list to be accessed"
        },
        "return": "uint256 token ID at the given index of the tokens list owned by the requested address"
      },
      "totalSupply()": {
        "details": "Gets the total amount of tokens stored by the contract",
        "return": "uint256 representing the total amount of tokens"
      }
    }
  },
  "userdoc": {
    "methods": {}
  }
}